{
  "contractName": "Marketplace",
  "abi": [
    {
      "constant": true,
      "inputs": [
        {
          "name": "_sender",
          "type": "address"
        }
      ],
      "name": "isOwner",
      "outputs": [
        {
          "name": "_isOwner",
          "type": "bool"
        }
      ],
      "payable": false,
      "stateMutability": "view",
      "type": "function"
    },
    {
      "constant": true,
      "inputs": [],
      "name": "getOwner",
      "outputs": [
        {
          "name": "_owner",
          "type": "address"
        }
      ],
      "payable": false,
      "stateMutability": "view",
      "type": "function"
    },
    {
      "constant": true,
      "inputs": [],
      "name": "owner",
      "outputs": [
        {
          "name": "",
          "type": "address"
        }
      ],
      "payable": false,
      "stateMutability": "view",
      "type": "function"
    },
    {
      "constant": true,
      "inputs": [
        {
          "name": "",
          "type": "uint256"
        }
      ],
      "name": "digitalAssets",
      "outputs": [
        {
          "name": "",
          "type": "address"
        }
      ],
      "payable": false,
      "stateMutability": "view",
      "type": "function"
    },
    {
      "constant": true,
      "inputs": [],
      "name": "assetFactoryAddress",
      "outputs": [
        {
          "name": "",
          "type": "address"
        }
      ],
      "payable": false,
      "stateMutability": "view",
      "type": "function"
    },
    {
      "constant": false,
      "inputs": [
        {
          "name": "newOwner",
          "type": "address"
        }
      ],
      "name": "transferOwnership",
      "outputs": [],
      "payable": false,
      "stateMutability": "nonpayable",
      "type": "function"
    },
    {
      "inputs": [
        {
          "name": "_assetFactoryAddress",
          "type": "address"
        }
      ],
      "payable": false,
      "stateMutability": "nonpayable",
      "type": "constructor"
    },
    {
      "anonymous": false,
      "inputs": [
        {
          "indexed": false,
          "name": "creator",
          "type": "address"
        },
        {
          "indexed": false,
          "name": "assetAddress",
          "type": "address"
        }
      ],
      "name": "AssetCreated",
      "type": "event"
    },
    {
      "anonymous": false,
      "inputs": [
        {
          "indexed": false,
          "name": "seller",
          "type": "address"
        },
        {
          "indexed": false,
          "name": "buyer",
          "type": "address"
        },
        {
          "indexed": false,
          "name": "assetAddress",
          "type": "address"
        }
      ],
      "name": "AssetSold",
      "type": "event"
    },
    {
      "anonymous": false,
      "inputs": [
        {
          "indexed": false,
          "name": "lessor",
          "type": "address"
        },
        {
          "indexed": false,
          "name": "lessee",
          "type": "address"
        },
        {
          "indexed": false,
          "name": "leasingPeriod",
          "type": "uint256"
        },
        {
          "indexed": false,
          "name": "assetAddress",
          "type": "address"
        }
      ],
      "name": "AssetLeased",
      "type": "event"
    },
    {
      "constant": false,
      "inputs": [
        {
          "name": "_name",
          "type": "string"
        },
        {
          "name": "_description",
          "type": "string"
        },
        {
          "name": "_identifier",
          "type": "string"
        }
      ],
      "name": "createDigitalAsset",
      "outputs": [],
      "payable": false,
      "stateMutability": "nonpayable",
      "type": "function"
    }
  ],
  "bytecode": "0x6060604052341561000f57600080fd5b6040516020806108db83398101604052808051906020019091905050336000806101000a81548173ffffffffffffffffffffffffffffffffffffffff021916908373ffffffffffffffffffffffffffffffffffffffff16021790555080600160006101000a81548173ffffffffffffffffffffffffffffffffffffffff021916908373ffffffffffffffffffffffffffffffffffffffff1602179055505061081f806100bc6000396000f300606060405260043610610083576000357c0100000000000000000000000000000000000000000000000000000000900463ffffffff1680632f54bf6e14610088578063893d20e8146100d95780638da5cb5b1461012e578063bd1b022114610183578063cb52fe44146101e6578063d8d036f51461023b578063f2fde38b1461031e575b600080fd5b341561009357600080fd5b6100bf600480803573ffffffffffffffffffffffffffffffffffffffff16906020019091905050610357565b604051808215151515815260200191505060405180910390f35b34156100e457600080fd5b6100ec6103b5565b604051808273ffffffffffffffffffffffffffffffffffffffff1673ffffffffffffffffffffffffffffffffffffffff16815260200191505060405180910390f35b341561013957600080fd5b6101416103de565b604051808273ffffffffffffffffffffffffffffffffffffffff1673ffffffffffffffffffffffffffffffffffffffff16815260200191505060405180910390f35b341561018e57600080fd5b6101a46004808035906020019091905050610403565b604051808273ffffffffffffffffffffffffffffffffffffffff1673ffffffffffffffffffffffffffffffffffffffff16815260200191505060405180910390f35b34156101f157600080fd5b6101f9610442565b604051808273ffffffffffffffffffffffffffffffffffffffff1673ffffffffffffffffffffffffffffffffffffffff16815260200191505060405180910390f35b341561024657600080fd5b61031c600480803590602001908201803590602001908080601f0160208091040260200160405190810160405280939291908181526020018383808284378201915050505050509190803590602001908201803590602001908080601f0160208091040260200160405190810160405280939291908181526020018383808284378201915050505050509190803590602001908201803590602001908080601f01602080910402602001604051908101604052809392919081815260200183838082843782019150505050505091905050610468565b005b341561032957600080fd5b610355600480803573ffffffffffffffffffffffffffffffffffffffff169060200190919050506106c8565b005b6000808273ffffffffffffffffffffffffffffffffffffffff166000809054906101000a900473ffffffffffffffffffffffffffffffffffffffff1673ffffffffffffffffffffffffffffffffffffffff1614905080915050919050565b60008060009054906101000a900473ffffffffffffffffffffffffffffffffffffffff16905090565b6000809054906101000a900473ffffffffffffffffffffffffffffffffffffffff1681565b60028181548110151561041257fe5b90600052602060002090016000915054906101000a900473ffffffffffffffffffffffffffffffffffffffff1681565b600160009054906101000a900473ffffffffffffffffffffffffffffffffffffffff1681565b6000600160009054906101000a900473ffffffffffffffffffffffffffffffffffffffff1673ffffffffffffffffffffffffffffffffffffffff1663de58d1568585856000604051602001526040518463ffffffff167c010000000000000000000000000000000000000000000000000000000002815260040180806020018060200180602001848103845287818151815260200191508051906020019080838360005b8381101561052757808201518184015260208101905061050c565b50505050905090810190601f1680156105545780820380516001836020036101000a031916815260200191505b50848103835286818151815260200191508051906020019080838360005b8381101561058d578082015181840152602081019050610572565b50505050905090810190601f1680156105ba5780820380516001836020036101000a031916815260200191505b50848103825285818151815260200191508051906020019080838360005b838110156105f35780820151818401526020810190506105d8565b50505050905090810190601f1680156106205780820380516001836020036101000a031916815260200191505b509650505050505050602060405180830381600087803b151561064257600080fd5b6102c65a03f1151561065357600080fd5b5050506040518051905090506002805480600101828161067391906107a2565b9160005260206000209001600083909190916101000a81548173ffffffffffffffffffffffffffffffffffffffff021916908373ffffffffffffffffffffffffffffffffffffffff1602179055505050505050565b6000809054906101000a900473ffffffffffffffffffffffffffffffffffffffff1673ffffffffffffffffffffffffffffffffffffffff163373ffffffffffffffffffffffffffffffffffffffff1614151561072357600080fd5b600073ffffffffffffffffffffffffffffffffffffffff168173ffffffffffffffffffffffffffffffffffffffff161415151561075f57600080fd5b806000806101000a81548173ffffffffffffffffffffffffffffffffffffffff021916908373ffffffffffffffffffffffffffffffffffffffff16021790555050565b8154818355818115116107c9578183600052602060002091820191016107c891906107ce565b5b505050565b6107f091905b808211156107ec5760008160009055506001016107d4565b5090565b905600a165627a7a723058208dce1fc1ce3ed7371582d58cd320944fb0f786b60e2d34b83596da7edd94b5000029",
  "source": "pragma solidity ^0.4.19;\n\nimport '../interfaces/IAssetFactory.sol';\nimport '../interfaces/IDigitalAsset.sol';\nimport './Ownable.sol';\n\n/**\n * @title Marketplace\n * @dev This contract represents your digital asset marketplace. Add as many features as you want\n * and feel free to get creative!\n */\ncontract Marketplace is Ownable\n{\n\taddress public assetFactoryAddress;\n\n\taddress[] public digitalAssets;\n\n\t// Some events for inspiration. Feel free to add to these or write your own!\n\tevent AssetCreated(address creator, address assetAddress);\n\tevent AssetSold(address seller, address buyer, address assetAddress);\n\tevent AssetLeased(address lessor, address lessee, uint256 leasingPeriod, address assetAddress);\n\n\t/** \n\t *  @dev Marketplace constructor\n\t */\n\tfunction Marketplace(address _assetFactoryAddress) public\n\t{\n\t\tassetFactoryAddress = _assetFactoryAddress;\n\t}\n\n\tfunction createDigitalAsset(string _name, string _description, string _identifier) public\n\t{\n\t\taddress newAsset = IAssetFactory(assetFactoryAddress).createAsset(_name, _description, _identifier);\n\t\tdigitalAssets.push(newAsset);\n\t}\n\n\t/***                 YOUR WORK HERE!                ***/\n\n\n\n\n\n\n\n\t/*                (And everywhere else!)              */\n}",
  "sourcePath": "/Users/maxhoward/Desktop/Marketplace/contracts/Marketplace.sol",
  "compiler": {
    "name": "solc",
    "version": "0.4.19+commit.c4cbbb05.Emscripten.clang"
  },
  "schemaVersion": "2.0.0",
  "updatedAt": "2018-03-30T18:10:45.099Z"
}