{
  "contractName": "Ownable",
  "abi": [
    {
      "constant": true,
      "inputs": [],
      "name": "owner",
      "outputs": [
        {
          "name": "",
          "type": "address"
        }
      ],
      "payable": false,
      "stateMutability": "view",
      "type": "function"
    },
    {
      "inputs": [],
      "payable": false,
      "stateMutability": "nonpayable",
      "type": "constructor"
    },
    {
      "constant": true,
      "inputs": [],
      "name": "getOwner",
      "outputs": [
        {
          "name": "_owner",
          "type": "address"
        }
      ],
      "payable": false,
      "stateMutability": "view",
      "type": "function"
    },
    {
      "constant": true,
      "inputs": [
        {
          "name": "_sender",
          "type": "address"
        }
      ],
      "name": "isOwner",
      "outputs": [
        {
          "name": "_isOwner",
          "type": "bool"
        }
      ],
      "payable": false,
      "stateMutability": "view",
      "type": "function"
    },
    {
      "constant": false,
      "inputs": [
        {
          "name": "newOwner",
          "type": "address"
        }
      ],
      "name": "transferOwnership",
      "outputs": [],
      "payable": false,
      "stateMutability": "nonpayable",
      "type": "function"
    }
  ],
  "bytecode": "0x6060604052341561000f57600080fd5b336000806101000a81548173ffffffffffffffffffffffffffffffffffffffff021916908373ffffffffffffffffffffffffffffffffffffffff16021790555061034d8061005e6000396000f300606060405260043610610062576000357c0100000000000000000000000000000000000000000000000000000000900463ffffffff1680632f54bf6e14610067578063893d20e8146100b85780638da5cb5b1461010d578063f2fde38b14610162575b600080fd5b341561007257600080fd5b61009e600480803573ffffffffffffffffffffffffffffffffffffffff1690602001909190505061019b565b604051808215151515815260200191505060405180910390f35b34156100c357600080fd5b6100cb6101f9565b604051808273ffffffffffffffffffffffffffffffffffffffff1673ffffffffffffffffffffffffffffffffffffffff16815260200191505060405180910390f35b341561011857600080fd5b610120610222565b604051808273ffffffffffffffffffffffffffffffffffffffff1673ffffffffffffffffffffffffffffffffffffffff16815260200191505060405180910390f35b341561016d57600080fd5b610199600480803573ffffffffffffffffffffffffffffffffffffffff16906020019091905050610247565b005b6000808273ffffffffffffffffffffffffffffffffffffffff166000809054906101000a900473ffffffffffffffffffffffffffffffffffffffff1673ffffffffffffffffffffffffffffffffffffffff1614905080915050919050565b60008060009054906101000a900473ffffffffffffffffffffffffffffffffffffffff16905090565b6000809054906101000a900473ffffffffffffffffffffffffffffffffffffffff1681565b6000809054906101000a900473ffffffffffffffffffffffffffffffffffffffff1673ffffffffffffffffffffffffffffffffffffffff163373ffffffffffffffffffffffffffffffffffffffff161415156102a257600080fd5b600073ffffffffffffffffffffffffffffffffffffffff168173ffffffffffffffffffffffffffffffffffffffff16141515156102de57600080fd5b806000806101000a81548173ffffffffffffffffffffffffffffffffffffffff021916908373ffffffffffffffffffffffffffffffffffffffff160217905550505600a165627a7a7230582003032816acaa59a6f858b88cbc9b57589ce8f5220f71befafb192df4616918cc0029",
  "source": "pragma solidity ^0.4.18;\n\n/**\n * @title Ownable\n * @dev The Ownable contract has an owner address, and provides basic authorization control\n * functions, this simplifies the implementation of \"user permissions\".\n */\ncontract Ownable {\n  address public owner;\n\n  /**\n   * @dev The Ownable constructor sets the original `owner` of the contract to the sender\n   * account.\n   */\n  function Ownable() public {\n    owner = msg.sender;\n  }\n\n  function getOwner() public view returns (address _owner)\n  {\n    return owner;\n  }\n\n  function isOwner(address _sender) public view returns (bool _isOwner)\n  {\n    bool senderIsOwner = (owner == _sender);\n    return senderIsOwner;\n  }\n\n  /**\n   * @dev Must be the designated owner\n   * to execute a method with this modifier.\n   */\n  modifier onlyOwner() {\n    require(msg.sender == owner);\n    _;\n  }\n\n\n  /**\n   * @dev Allows the current owner to transfer control of the contract to a newOwner.\n   * @param newOwner The address to transfer ownership to.\n   */\n  function transferOwnership(address newOwner) public onlyOwner {\n    require(newOwner != address(0));      \n    owner = newOwner;\n  }\n\n}",
  "sourcePath": "/Users/maxhoward/Desktop/Marketplace/contracts/Ownable.sol",
  "compiler": {
    "name": "solc",
    "version": "0.4.19+commit.c4cbbb05.Emscripten.clang"
  },
  "schemaVersion": "2.0.0",
  "updatedAt": "2018-03-30T18:10:44.484Z"
}